:080000000C94D6000C940000E2
:100008000C9400000C9403010C9400000C94000064
:100018000C9400000C9400000C9400000C94000058
:100028000C9400000C9400000C9400000C94000048
:100038000C9400000C9400000C9400000C94000038
:100048000C9400000C9400000C940000FEFDFBF7DB
:100058003738392F3435362A3132332D43303D2B5A
:100068001027E80364000A000100001000011000D6
:10007800010001000000000000000000020006006E
:10008800526573746172742047616D65202E2E2E3F
:1000980000596F7520476F74204974212020202053
:1000A80020002D2D2D2D2D2D2D2D2D2D2D2D2D2DB2
:1000B8002D2D00416E737765722049733A202564AF
:1000C80000536F20436C6F7365212020202020008F
:1000D800436C6F736521202020202020200046617A
:1000E8007221202020202020202000536F204661EC
:1000F800722120202020202020200057656C636F6B
:100108006D6520546F0047756573732047616D6591
:10011800005072657373203D20746F207374617290
:1001280074004E756D6265722047656E6572617404
:100138006564000080C001002D4E414E00494E46C6
:1001480000000A0004007A00010011038400010085
:1001580013038600110060028800110071029900E3
:1001680011008202AA000F009302C9000E00A20229
:10017800D8000D00B002E6001000BD02F3000B002D
:10018800CD0203010B00D8020E011100E302190190
:100198001100F4022A0102001D033C01010023039F
:1001A8003E010000F894EE27ECBBF1E0FBBFEBBF8B
:1001B800E5BF8DE0A2E0BB27ED938A95E9F780E0E3
:1001C80098E0A0E6ED930197E9F7EAE4F1E085917C
:1001D8009591009761F0A591B59105901590BF0193
:1001E800F00105900D920197E1F7FB01F0CFEFE5E3
:1001F800EDBFE8E0EEBFC0E6D2E00C943D020A9203
:100208001A92FA926A937A938A939A93AA93BA93D0
:10021800EA93FA93EFB7EA931A930A9304E010E08B
:100228001430C0F4E12FF0E0EC5AFF4F049002BA0A
:10023800849902C000E00EC0859902C001E00AC09E
:10024800869902C002E006C0879902C003E002C096
:100258001F5FE6CF0E9466055490442019F4EBE234
:10026800E51509F015C055240E947305A1E00E9408
:10027800CA02A0E6B2E00E940003ACEDB5E00E941D
:100288000906CC24DD24E1E04E2E77240E94D90211
:10029800E2E6E51511F0772009F4C4C0E0E3E515BE
:1002A800E1F0E1E3E515C9F0E2E3E515B1F0E3E3D8
:1002B800E51599F0E4E3E51581F0E5E3E51569F066
:1002C800E6E3E51551F0E7E3E51539F0E8E3E51570
:1002D80021F0E9E3E51509F0A3C0CA92A0E056D1E0
:1002E800A52D0E94E602F601E75FFC4F5082A7E1C8
:1002F800B3E00E947805F60131966F01A9E0B3E0FA
:100308000E943F035F018A149B0424F0F401EA1958
:10031800FB0903C0F501E819F909A9E1B3E00E9456
:100328008A060E9427060E94D4060E947E050E9423
:10033800E20611F50E948705A1E7B2E00E948C054C
:10034800A2E024D1A2E8B2E00E948C05A3E01ED16D
:10035800E5E0F3E0FA93EA93EBEBF0E0FA93EA9343
:10036800F4010E948A060E94DD0684E00E940505C9
:100378002896A5E0B3E02AC00E949105E0E0F0E0ED
:1003880060E470E40E94550611F008F005C00E9470
:100398008705A3E9B2E01AC00E947E05A0E0B0E09C
:1003A80080E490E40E94550660F40E949105E0E024
:1003B800F0E060E271E40E94550611F008F001C017
:1003C80001C005C00E948705A2EAB2E015D10E94CB
:1003D8007E05A0E0B0E080E291E40E94550660F45A
:1003E8000E949105E0E0F0E060EA71E40E945506A1
:1003F80011F008F001C001C005C00E948705A0EBFC
:10040800B2E00DC00E947E05A0E0B0E080EA91E471
:100418000E94550628F40E948705ADEBB2E0ECD0A7
:10042800E2E65E2E0E946605A491A33481F40E9440
:100438007305A0E0ABD00E949A05CC24DD240E946D
:10044800A405E0911003E0930C030E94B105E0EFCE
:10045800E2BB09911991E991EFBFF991E991B9913D
:10046800A9919991899179916991F9901990099037
:100478001895E0E0EABBEBBBE7BBE4E0E8BBE0E0F3
:10048800E4BBE5BBEFE0E1BBE0EFE2BBEBB7E0626A
:10049800EBBFE0E0E5BFE4BFE0E2EABFA0E1BDD02A
:1004A8007894E0911103F0911203CE16DF0684F0E0
:1004B800CC24DD240E949A05ACEDB5E00E94090623
:1004C8000E947305A0E062D00E94A4050E94B105B5
:1004D8004420A1F0E3E0EA93A0E058D0ADECB2E00C
:1004E8008BD0E3E0EA93A1E051D0A8EDB2E00E94FE
:1004F8008C05A2E04BD0A3EEB2E07ED0EDE3E5158B
:1005080011F4772009F020C050D04424E1E07E2E79
:100518005524A5E1B3E00E947805DF010E94760327
:100528000E948003DF01E0911303F09114030E94FD
:10053800C2064F010E948705A4EFB2E05DD0A4EF88
:10054800B1E00E94090631D0ACCFFFCFAA93EBB33C
:10055800EF70AE2FE881E07FEA2BEBBB82E08A9553
:10056800F1F7DA9A82E08A95F1F7DA9882E08A95CB
:10057800F1F77FC0AA93A881E9DFE881E295E883D3
:10058800A881E4DF81E18A95F1F773C0AA93E88135
:10059800F0E0E35EFC4FE081A981AE0FEBDF6980FC
:1005A800E881E09321030C947E03A2E00E94C70532
:1005B800ACE0E0DFA1E00E94C705E0E0E0932103A2
:1005C8006E2E0895AA93A881AA3021F0E091220303
:1005D8006E1660F0E0E0EA93A0912103AF5FA0936C
:1005E8002103D4DFA881AA3009F443C06394D89AC0
:1005F800A881C0DFD8983DC0BA93AA931A93A9815D
:10060800BA81ED91A983BA831E2FE03019F0A12F8A
:10061800D9DFF5CF188123960895AA93EAB3E06F3E
:10062800EABBD29AD09AD19ADA98D898D998E88120
:10063800E0932203E058E0931F03E881E054E0933D
:100648002003A4E1B0E00E9409060E94CD050E94A3
:10065800CD050E94CD05A0E279DF81E28A95F1F708
:10066800A8E288DFA4E086DFA5E884DFA6E082DFD1
:100678009CDF21960895BA93AA93B981A881EC9139
:100688008A2FAE2F0E945B05A82FEE2311F011963A
:10069800F6CFE894EC91ED3211F4689402C0EB3295
:1006A80009F4119666277727EC918A2FAE2F0E94BE
:1006B8005205A82FEE2379F0FB01660F771F660F0E
:1006C800771F6E0F7F1F660F771FED91FF27E0538F
:1006D8006E0F7F1FE9CFFB011EF4E095F095319670
:1006E80022960895BA93AA93E881F9810E948A060E
:1006F8000E94D40522960895E0912303F0912403E3
:100708006091250370912603ADE6BEE486EC91E482
:100718000E948F06EE59F8486F4F7F4F0E94D4050C
:10072800FB01FF770895BA93AA931A930A93AA81B3
:10073800BB8112960E94D006309729F1AA81BB810D
:1007480014960E94D0068F01309761F00230E0E0E5
:100758001E0780F0F80131978F01AA81BB8114969A
:10076800ED93FC93AA81BB8112960E94780531977C
:10077800AC81A083AA81BB810E94D006FF2312F01E
:100788000E94780506C0AA81BB81EFEFFFEFED93C9
:10079800FC931981088125960895BA93AA93269700
:1007A8000E94E60610E0AC85BD85E0E0F0E0ED9340
:1007B800FC93EA89FB893196EA8BFB8B3197E491AC
:1007C8002E2FE03009F415C1E12FE03039F425323D
:1007D80011F411E002C00E94DD050AC1E130A9F45C
:1007E800253219F40E94DD0502C112E040E000E064
:1007F8002D3211F401E0FCC02B3211F44BE2F8C0A9
:10080800203211F440E2F4C002C0E23039F450E082
:1008180013E0203311F40068EBC003C0E33009F0A3
:10082800E7C0203310F02A3308F007C0AAE05A9F27
:10083800502DE22FE0535E0FDBC0E22FE33649F480
:100848000E94E405E889F989A481AA930E94EA052F
:10085800CEC0E33741F40E94E4050E94F0050E94EF
:1008680039051E2F0AC0E03761F40E94E4050E9492
:10087800F0050E9445051E2F086002600F7730E0E2
:1008880034C0E43611F0E93611F4046002C0E537EB
:1008980031F4E8E6F0E0EE83FF8315E00CC0E835BC
:1008A80011F4086003C0E83709F0A1C0E2E7F0E0FE
:1008B800EE83FF8314E002FF14C00E94E4050E9447
:1008C800FA05AB85AA233AF4EA85FB850E947906E6
:1008D800EA87FB874DE2403011F01F5F01C00B7FB4
:1008E80004C00E94E4050E94FA0500FD11C0151716
:1008F80078F407FF08C002FF04C00B7F242F1150B3
:1009080001C020E301C020E20E94DD055150EFCF75
:10091800312F01FF17C03030A1F003FF06C0EE8170
:10092800FF812591EE83FF8305C0AE81BF812D91A4
:10093800AE83BF830E94DD05503009F0515031501D
:10094800EACF4BC020E3EE81FF810E94D906E887F9
:10095800F987EE81FF813296EE83FF83E885F9857A
:10096800AA85BB85AE17BF0750F02F5FA885B9854C
:10097800EA85FB85EA1BFB0BEA87FB87EFCF2A3367
:1009880028F003FF02C0295F01C0295D04FD1AC0D9
:10099800213320F4A885B985119709F409C05317A4
:1009A80010F000FF01C013C020E207FF0BC020E3D6
:1009B800006102FF07C00B7F4A930E94EA0550308E
:1009C80009F051500E94DD05503009F05150315066
:1009D800A885B985129708F0B5CF00FF08C0503038
:1009E80031F05150E0E2EA930E94EA05F8CF10E0B6
:1009F800E0CEAC85BD850E94D0060E94ED066496C7
:100A08000895FF92F82E26970E94E8060E94020693
:100A1800309719F4EFEFFFEF23C0DE0116960E941E
:100A280075068D010E940206EE83FF83E0E0E887E9
:100A3800E987DE011A960E9475060E94D006FA938D
:100A4800EA931A930A93E7E9F3E0FA93EA93DE014B
:100A58001A96A3DE9F01AE81BF81E0E0EC93F90115
:100A68000E94EF062A96FF900895BA93AA93A99137
:100A7800B991EE27FF276D91662311F03196FBCFD0
:100A88000895BA93AA93AA27BB27E991F9910590EB
:100A9800002011F01196FBCFFD010895AA93E1E023
:100AA800F991F03310F0FA3308F0EE270895AA937D
:100AB800E1E0F991F03229F0F93010F0FE3008F059
:100AC800EE270895E12FA8E5B0E0F0E00E94850642
:100AD800AE0FBF1FE02FF0E0EA0FFB1F08950E9442
:100AE800D902E0E0EA930895ED91FD913196FE93E5
:100AF800EE930895E0911903F0911A0360911B0396
:100B080070911C030895E0E0EA93A1E00C94CA02F6
:100B18000E940003E0E0EA930895A0911903B091C0
:100B28001A0380911B0390911C030895E0E0E09361
:100B38001903E0931A03E0931B03E0931C03089541
:100B4800E0910D03E0930903E0910E03E0930A039B
:100B5800E0910F03E0930B030895E0910D03E093F8
:100B68000503E0910E03E0930603E0910F03E09381
:100B78000703E0911003E0930803E0E0E093170314
:100B8800E093180308950E94BE02A3E0B0E00C941D
:100B98000906A0E30E94AA0281E28A95F1F7089566
:100BA800E0932303F09324036093250370932603B3
:100BB80008952A93AD85BE85EF85F889099508952E
:100BC800E889F9893497E88BF98B0895AD85BE8556
:100BD800EF85F88909950895A889B98914960E941E
:100BE800D006EE83FF83AE81BF810895A889B989B5
:100BF80014960E94D006EA87FB870895DE011C96AA
:100C08000E9475060E94D0060895109639F08AEF62
:100C180090E00197F1F7A8951197C9F7089550E862
:100C2800572711F45F932BC05F3F31F0660F000C1C
:100C380057956795752F08955F9300200AF02BC08C
:100C480024C0689401C0E894309760407040B1F0C7
:100C5800002426F0772312F400944BD0172E7EE15F
:100C6800112032F07A95EE0FFF1F661F111CF9CF85
:100C7800EF2FF62F612D5F93D2DF5F910895EE2756
:100C8800FF27662777275F910895EFEFFFEF6FE75C
:100C98007FEF5F910895EFEFFFEF6FE77FE75F91D9
:100CA800089599239AF0772342F0971748F029F48A
:100CB800AE17BF07860720F031F0989488940895FE
:100CC8009894089408951894889408957723C2F7FF
:100CD800971798F3A9F7EA17FB07680788F399F3BA
:100CE800ECCF0024AF0DB01D0895F195E195F040CB
:100CF8000895F09560957095E195FF4F6F4F7F4F80
:100D08000895EE0FFF1FEE0FFF1F08956F2F660F58
:100D1800660B762F08957A9F702D6B9F700DF89F44
:100D2800700DE99F700D6A9F602D710DFB9F600D1E
:100D3800711DE89F600D711D8827FA9FF02D610DC8
:100D4800781FEB9FF00D611D781FEA9FE02DF10DD4
:100D5800681F781F08950024112490E1AA0FBB1F73
:100D6800001C111C0E1A1F0A18F40E0E1F1E01C0BB
:100D7800A1609A9599F7FD01D0010895E894B7FF0D
:100D880004C0A095B09511966894F7FDAEDFE3DF37
:100D9800FD010EF4AADF0895ED91FC9111970895D5
:100DA800ED93FD936D937C9308950590F491E02D58
:100DB80008957A936A93FA93EA9308953097604076
:100DC800704008955A934A933A932A931A930A9330
:100DD80008955D814C813B812A811981088108959C
:00000001FF
